S0170000436F6E7461646F7242696E6172696F2E737265630F
S11300000C9434000C943E000C943E000C943E007E
S11300100C943E000C943E000C943E000C943E0064
S11300200C943E000C943E000C943E000C943E0054
S11300300C943E000C943E000C943E000C943E0044
S11300400C943E000C943E000C943E000C943E0034
S11300500C943E000C943E000C943E000C943E0024
S11300600C943E000C943E0011241FBECFEFD8E048
S1130070DEBFCDBF0E944B000C9465000C940000C1
S113008084B114B885B18FEF85B99AB18AB9109249
S1130090C1001BB808950E9440009FEF20E083B187
S11300A0981789F0EFE9FFE03197F1F700C00000FD
S11300B083B1981741F0199B2150189903C02F5F01
S11100C0982F01C0982F2BB9EACFF894FFCFE8
S9030000FC
