:100000000C9434000C9451000C9451000C94510049
:100010000C9451000C9451000C9451000C9451001C
:100020000C9451000C9451000C9451000C9451000C
:100030000C9451000C9451000C9451000C945100FC
:100040000C9451000C9451000C9451000C945100EC
:100050000C9451000C9453000C9451000C945100DA
:100060000C9451000C94510011241FBECFEFD8E026
:10007000DEBFCDBF11E0A0E0B1E0E8E0F2E002C0F9
:1000800005900D92A231B107D9F721E0A2E1B1E0CC
:1000900001C01D92A631B207E1F70E948E000C94B8
:1000A00002010C9400001F920F920FB60F921124C0
:1000B0008F93EF93FF938091790080931301EAE788
:1000C000F0E0808180618083808180648083FF9103
:1000D000EF918F910F900FBE0F901F90189584B1E4
:1000E000807F84B985B18FEF85B99AB18AB91092B2
:1000F000C1001BB897B187B91BB80895ECE7F0E0D1
:100100001082808187668083EAE7F0E01082808138
:100110008F6080838081806880830895F8940E9436
:100120006F000E947E007894EAE7F0E080818064AE
:10013000808383B180931401909110018917E9F0B5
:100140008FE99FE00197F1F700C0000083B1809331
:10015000140190911001891781F0199905C09091AF
:100160001501915090931501189905C090911501B2
:100170009F5F9093150180931001909113018091DE
:100180001501891720F480E18093120102C01092BA
:1001900012018FE59DE60197F1F700C00000E091A4
:1001A0001301E295EF70F0E0E050FF4F80818BB9D2
:1001B0008091120188B988B1816088B98FE59DE688
:1001C0000197F1F700C00000E0911301EF70F0E03B
:1001D000E050FF4F80818BB98091120188B988B1BE
:1001E000826088B98FE59DE60197F1F700C00000B5
:1001F000809115018BB98091120188B988B1846012
:0802000088B997CFF894FFCFF5
:1002080077116B3B1D3E7E137F3F5F7C66796E4E98
:02021800FF00E5
:00000001FF
