S0180000414443506F74656E63696F6D6574726F2E73726563DC
S11300000C9434000C9451000C9451000C94510045
S11300100C9451000C9451000C9451000C94510018
S11300200C9451000C9451000C9451000C94510008
S11300300C9451000C9451000C9451000C945100F8
S11300400C9451000C9451000C9451000C945100E8
S11300500C9451000C9453000C9451000C945100D6
S11300600C9451000C94510011241FBECFEFD8E022
S1130070DEBFCDBF11E0A0E0B1E0EEECF1E002C0E4
S113008005900D92A231B107D9F721E0A2E1B1E0C8
S113009001C01D92A531B207E1F70E948E000C94B5
S11300A0E5000C9400001F920F920FB60F921124DA
S11300B08F93EF93FF938091790080931201EAE785
S11300C0F0E0808180618083808180648083FF91FF
S11300D0EF918F910F900FBE0F901F90189584B1E0
S11300E0807F84B985B18FEF85B99AB18AB91092AE
S11300F0C1001BB897B187B91BB80895ECE7F0E0CD
S11301001082808187668083EAE7F0E01082808134
S11301108F6080838081806880830895F8940E9432
S11301206F000E947E00789483B1809313019091B4
S113013010018917E9F08FE99FE00197F1F700C0FA
S1130140000083B18093130190911001891781F00D
S1130150199905C090911401915090931401189924
S113016005C0909114019F5F909314018093100136
S11301708FE59DE60197F1F700C00000E0911201C0
S1130180E295EF70F0E0E050FF4F80818BB981E0A1
S113019088B98FE59DE60197F1F700C00000E09172
S11301A01201EF70F0E0E050FF4F80818BB982E0E4
S11301B088B98FE59DE60197F1F700C000008091B2
S11101C014018BB984E088B9AFCFF894FFCF57
S11301CE77116B3B1D3E7E137F3F5F7C66796E4ECF
S10501DEFF001C
S9030000FC
